:400000000080002011000000150B0000150B000008B5044B1A6803F53F5302331A6000F099FD00BFFA46004010B5054C237833B9044B13B10448AFF300800123237010BDA1
:400040004081FF1F000000003C22000008B5034B1BB103490348AFF3008008BD000000004481FF1F3C22000000B58DB062B60AA800F01EF9684600F025F80AA907A800F0DD
:40008000D9FB07AA0AA904A800F086F804A9684600F080F80AA800F032F99DF81830002BFBD1059800F0C2F90021059B186801F069FB0028F1D0CC238DF8183004A800F06B
:4000C00071F8EAE738B50446084B186000F096FE0025A5600121082001F086FB2060257102232373024800F0B3FE38BD5C81FF1F0901000008B501688B784A780978806850
:4001000000F062F808BD000070B5214C23681E681D796A1C1A7100F037FE70552068037B022B0ED0012B2DD083B90379032B0DD1FFF7E0FF164B1B6800221A7102221A7367
:4001400004E00379012B02D00023037170BD03681B78A02B05D0AA2BF8D1002303730371F4E701230373002303718368187A00F0FFFD074B1B689B681A7ACC2AE6D105225F
:400180001A72E3E70023037102230373DEE700BF5C81FF1F8160704702604160052303727047000008B50749406800F0A3F8012000F0B4FE012000F027FD002000F0AEFE55
:4001C00008BD00BF402200002DE9F0419CB00446884616461D4600230372019500920B462E4A642103A801F017FC03A9606800F081F808F1FF33DFB2B8F1000F12D0237A22
:4002000083B90021206800F01DFB0128F1D0B0F1FF3F01D0B846ECE72149606800F06AF841232372731EDFB296B1237A83B90121206800F007FB0128F4D0B0F1FF3F01D06E
:400240003E46EFE71749606800F054F8422323726B1EDEB295B1237A83B90221206800F0F1FA0128F4D0B0F1FF3F01D03546EFE70D49606800F03EF843232372237A2BB162
:400280002046FFF78FFF1CB0BDE8F0810749606800F030F821232372F2E700BF58220000A0220000B4220000C8220000DC22000010B50446002001F0E3FB01F045FB00F0B8
:4002C000E9FC01F065FB094A82FB0032C317C3EBE2134FF4C87202FB13030133636000232360034800F0F2FC10BD00BF1F85EB51F422000008B5084600F0E8FC08BD08B510
:40030000012000F003FD4FF47A7000F07DFC002000F0FCFC4FF47A7000F076FC08BD000008B54368013B436003B108BD0349FFF7E1FF012000F0BEFDF7E700BF202300002C
:4003400010B5044601F024FB0B4A82FB0032C317C3EBE20303EB8303B0EB830F07D107492046FFF7C7FF002000F0C4FD10BD012000F0C0FDFAE700BF676666664C230000EE
:40038000D0B5044601F004FB254A82FB0032C317C3EB2213322202FB1303CBB101F0F8FA1F4A82FB0031C317C3EB6113642101FB130382FB0320DB17C3EB60100A3001F058
:4003C00049F90146206801F091F820602068D0BD14492046FFF78EFF01F0DAFA104A82FB0031C317C3EB6113642101FB130382FB0320DB17C3EBA01000F030FF00220A4BB1
:4004000000F0DEFD06460F46206800F039FF32463B4600F0D7FD01F013F82060D6E700BF1F85EB51782300000000D03F10B504460C49FFF75FFF01F0ABFA0B4B83FB00231C
:40044000A3EBE07303EB4303A0EB43034FF47A7041F2883200FB032000F0D6FB0023236010BD00BFA0230000ABAAAA2A10B504465C4B1B78072B16D8DFE803F0041A3046C8
:400480005C72889E012000F0F1FC002000F026FD002000F0F7FC002000F000FD012C03D0504B07221A7010BD4E4B01221A70FAE7012000F0DBFC012000F010FD002000F0AF
:4004C000E1FC002000F0EAFC012C03D0454B00221A70E8E7434B02221A70E4E7002000F0C5FC012000F0FAFC002000F0CBFC002000F0D4FC012C03D03A4B01221A70D2E79D
:40050000384B03221A70CEE7002000F0AFFC012000F0E4FC012000F0B5FC002000F0BEFC012C03D02F4B02221A70BCE72D4B04221A70B8E7002000F099FC002000F0CEFC8B
:40054000012000F09FFC002000F0A8FC012C03D0244B03221A70A6E7224B05221A70A2E7002000F083FC002000F0B8FC012000F089FC012000F092FC012C03D0194B0422B7
:400580001A7090E7174B06221A708CE7002000F06DFC002000F0A2FC002000F073FC012000F07CFC012C03D00E4B05221A707AE70C4B07221A7076E7012000F057FC00202E
:4005C00000F08CFC002000F05DFC012000F066FC012C03D0034B06221A7064E7014B00221A7060E76081FF1F70B505460E460024AC4207DA3046FFF739FF022000F004FBB2
:400600000134F5E770BD08B50121FFF7EDFF08BD10B5044600F05AFC012806D00120FFF7F2FF2068FFF77CFEF4E70023237110BD08B50021FFF7D8FF08BD08B5012910D00C
:4006400002291AD001B108BD0379012B05D0022BF9D16420FFF7D7FFF5E73220FFF7D3FFF1E703792BB1022BEDD13220FFF7CBFFE9E73220FFF7DCFFE5E703792BB1012BC4
:40068000E1D13220FFF7D4FFDDE76420FFF7D0FFD9E7000010B5044601290DD0022914D009B1002010BD0D490068FFF723FE00212046FFF7C2FFF4E709490068FFF71AFE1E
:4006C00001212046FFF7B9FFEBE706490068FFF711FE02212046FFF7B0FFE2E7C4230000E0230000FC23000008B50068FFF728FE00F00CFC08BD000010B504462F4B5B78DC
:40070000032B14D8DFE803F002182E44012000F011FC012000F01AFC002000F023FC002000F02CFC012C03D0244B03225A7010BD224B01225A70FAE7002000F0FBFB012020
:4007400000F004FC012000F00DFC002000F016FC012C03D0194B00225A70E8E7174B02225A70E4E7002000F0E5FB002000F0EEFB012000F0F7FB012000F000FC012C03D01A
:400780000E4B01225A70D2E70C4B03225A70CEE7012000F0CFFB002000F0D8FB002000F0E1FB012000F0EAFB012C03D0034B02225A70BCE7014B00225A70B8E76081FF1FEA
:4007C00010B50A490068FFF795FD0024632C04DC0020FFF791FF0134F8E70024B32C04DC0120FFF789FF0134F8E710BD18240000F8B504460068FFF7C3FD0546A06800F0AD
:400800003FFD00220A4B00F0DDFB06460F46284600F036FD02460B463046394600F006FE10B1A5600120F8BDA5600020FBE700BF0000E03F08B5032202710160FFF7E8FE76
:4008400008BD000038B50446FFF724FF2046FFF74BFF68B12046FFF7B3FF2046FFF7C8FF054668B109492068FFF744FD012505E007492068FFF73EFD4FF0FF35284638BD14
:4008800004492068FFF736FDF8E700BF582400002824000040240000FEE7F0B4002217460BE001EB420511F812406D78A5550132013BDBB2002BF4D10137132F05D850F885
:4008C0002760F3B226F0FF06F4E7F0BC70470000064B1B7803F00701054A11701B0901321370044B44221A70704700BFCF0100496E5800407658004008B50A46002100F0EA
:40090000B3FF08BD38B5274B33221A801823264A137002327721118002321370234B02221A7008224FF040231A7003F50073032119701F4B1B78DBB21E490B701E4B1A80B7
:40094000023B41F251221A80002419250CE01B4B1B7803F0010343EA440404F003044FF4F07000F019FB013D0DB1032CEFD1ADB1134B4FF480721A8007221A700022114900
:400980000A700231482008701A70033B02221A700D4A137843F00303137038BD0320FFF77BFF00BF80400040824000400043004008010049A1460040224200402542004006
:4009C0000440004006400040A243004008B500F03DFF08BD38B572B6394A137843F00403137000240BE0374804EB440253001A46034499888058FFF77FFF0134E4B2062C13
:400A0000F1D90024002C4DD02F494FF09040FFF744FF2E4B2E4A1A602E4A137843F0020313701032137843F0020313702A4C237843F040032370A2F58632513A137843F05C
:400A4000100313700A2225492548FFF7BFFF082224492548FFF7BAFF082224492448FFF7B5FF082223492448FFF7B0FF082223492348FFF7ABFF234A137843F008031370C4
:400A8000214D61232B70FFF73DFF81232B701F4B01221A70FFF71CFF0E2221461C48FFF795FF38BD074A04EB84014B0013440622196BD86AFFF78AFF0134E4B2A2E700BFAF
:400AC000E84600407424000050000048580801400400046403500140A043004040050048C05100404C050048F251004054050048125100405C050048225100406405004849
:400B000032510040224300400048004004000840B043004008B500F06FFE03680C2B00D0FEE7FEE708B50346084A10680344084A9A1A802A02DC054A136008BD00F05CFE7A
:400B40000C2303604FF0FF30F7E700BFC880FF1F8081FF1F08B5104E104D11E051F8040B43F8040B0432A242F8D1E868002203E0002143F8041B04328242F9D11035013E4D
:400B800026B129686B68AC680022ECE700F03AFEFFF76AFAFEE700BF010000000425000008B5104B104A1A60104A136843F400731360002306E00E4A52F823100D4A42F854
:400BC000231001332F2B03D8032BF4D90A49F5E70A4B1A780A4B1A700A4B064A1A60FFF7F9FE08BD0CED00E00004FA0514ED00E0000000000080FF1F150B0000BC760040AB
:400C0000C080FF1F08ED00E010B50446B4F5004F06D9074B186800F0BFF9A4F50044F5E7034B586800FB04F000F0B6F910BD00BFCC80FF1F084B72221A70013320221A7065
:400C4000A3F2631306221A70103347221A7003F5A87300221A7070478A65004010B500F0A3F904460A4A137843F0200313700132137843F010031370033A137843F01003F4
:400C8000137000F035F8204600F092F910BD00BF9A65004008B5064B1B7813B1FFF7DEFF08BDFFF7C7FF024B01221A70F6E700BF6281FF1F034B1B7813F0040FFAD1024B89
:400CC00018707047686500404964004038B5074B1B7803B938BD05460024285D0028F9D0FFF7E8FF0134A4B2F7E700BF6281FF1F054A137843F0010313701032137843F0B9
:400D000001031370704700BFA2430040044A137803F0FD03400000F002001843107070472051004008B500F03FF90A4A137843F02003137002F20112137843F01003137058
:400D4000A2F58072137843F01003137000F030F908BD00BF98640040014B1878704700BF69650040014B1878704700BF69640040034B1B7813F0020FFAD0024B18707047B3
:400D80006965004049650040014B1878704700BF5965004008B50B4B1B7813F0080F02D0094B1B78F7E700F0FFF8084B1A7842F003021A701A7802F0FC021A7000F0F8F817
:400DC00008BD00BF69640040596500409965004008B5084B07221A70FFF7DCFFFFF7BCFFFFF7C0FF044B00221A70A3F5807308221A7008BD886400408965004008B5064BC5
:400E00001B7813B1FFF78EFF08BDFFF7E1FF024B01221A70F6E700BF6481FF1F014B1B681864704708ED00E04001C0B2014B1870704700BF00E400E0014B01221A6070476C
:400E400000E100E0014B01221A60704780E100E010B50446FFF7F6FF2046FFF7DFFF0720FFF7E2FFFFF7E8FF10BD0000044A137803F0FE0300F0010018431070704700BFE5
:400E800030510040044A137803F0FD03400000F0020018431070704730510040044A137803F0F703C00000F0080018431070704730510040044A137803F0EF03000100F0A0
:400EC000100018431070704730510040024B1878C0F30010704700BF31510040044A137803F0FB03800000F0040018431070704730510040044A137803F0DF03400100F047
:400F0000200018431070704730510040024B1878C0F34010704700BF31510040044A137803F0FB03800000F0040018431070704710510040044A137803F0BF03800100F0B6
:400F4000400018431070704730510040044A137803F0EF03000100F01000184310707047F0510040044A137803F07F03C001C0B218431070704700BF30510040044A1378A0
:400F800003F0DF03400100F02000184310707047F0510040000000000230800803D000BF01380046FCD17047EFF3108072B6704780F31088704700BF81F0004102E000BF84
:400FC00083F0004330B54FEA41044FEA430594EA050F08BF90EA020F1FBF54EA000C55EA020C7FEA645C7FEA655C00F0E2804FEA5454D4EB5555B8BF6D420CDD2C4480EA26
:40100000020281EA030382EA000083EA010180EA020281EA0303362D88BF30BD11F0004F4FEA01314FF4801C4CEA113102D0404261EB410113F0004F4FEA03334CEA1333B9
:4010400002D0524263EB430394EA050F00F0A780A4F10104D5F1200E0DDB02FA0EFC22FA05F2801841F1000103FA0EF2801843FA05F359410EE0A5F120050EF1200E012A0E
:4010800003FA0EFC28BF4CF0020C43FA05F3C01851EBE37101F0004507D54FF0000EDCF1000C7EEB00006EEB0101B1F5801F1BD3B1F5001F0CD349085FEA30004FEA3C0C3D
:4010C00004F101044FEA445212F5800F80F09A80BCF1004F08BF5FEA500C50F1000041EB045141EA050130BD5FEA4C0C404141EB0101013C28BFB1F5801FE9D291F0000FBB
:4011000004BF01460020B1FA81F308BF2033A3F10B03B3F120020CDA0C3208DD02F1140CC2F10C0201FA0CF021FA02F10CE002F11402D8BFC2F1200C01FA02F120FA0CFC87
:40114000DCBF41EA0C019040E41AA2BF01EB0451294330BD6FEA04041F3C1CDA0C340EDC04F11404C4F1200220FA04F001FA02F340EA030021FA04F345EA030130BDC4F101
:401180000C04C4F1200220FA02F001FA04F340EA0300294630BD21FA04F0294630BD94F0000F83F4801306BF81F480110134013D4EE77FEA645C18BF7FEA655C29D094EAA5
:4011C000050F08BF90EA020F05D054EA000C04BF1946104630BD91EA030F1EBF0021002030BD5FEA545C05D14000494128BF41F0004130BD14F580043CBF01F5801130BD92
:4012000001F0004545F0FE4141F470014FF0000030BD7FEA645C1ABF194610467FEA655C1CBF0B46024650EA013406BF52EA033591EA030F41F4002130BD00BF90F0000F17
:4012400004BF0021704730B54FF4806404F132044FF000054FF0000150E700BF90F0000F04BF0021704730B54FF4806404F1320410F0004548BF40424FF000013EE700BFCF
:4012800042004FEAE2014FEA31014FEA02701FBF12F07F4393F07F4F81F06051704732F07F4208BF704793F07F4F04BF41F40021704730B54FF4607401F0004521F00041E8
:4012C0001CE700BF50EA010208BF704730B54FF000050AE050EA010208BF704730B511F0004502D5404261EB41014FF4806404F132045FEA915C3FF4D8AE4FF003025FEAC3
:40130000DC0C18BF03325FEADC0C18BF033202EBDC02C2F1200300FA03FC20FA02F001FA03FE40EA0E0021FA02F11444BDE600BF4FF0FF3C06E000BF4FF0010C02E000BFCE
:401340004FF0010C4DF804CD4FEA410C7FEA6C5C4FEA430C18BF7FEA6C5C1BD001B050EA410C0CBF52EA430C91EA030F02BF90EA020F0020704710F1000F91EA030F58BFE7
:40138000994208BF90422CBFD8176FEAE37040F0010070474FEA410C7FEA6C5C02D150EA013C07D14FEA430C7FEA6C5CD6D152EA033CD3D05DF8040B704700BF84461046FA
:4013C00062468C461946634600E000BF01B5FFF7B7FF002848BF10F1000F01BD4DF808EDFFF7F4FF0CBF012000205DF808FB00BF4DF808EDFFF7EAFF34BF012000205DF885
:4014000008FB00BF4DF808EDFFF7E0FF94BF012000205DF808FB00BF4DF808EDFFF7CEFF94BF012000205DF808FB00BF4DF808EDFFF7C4FF34BF012000205DF808FB00BF4A
:401440004FEA4102B2F1E04324BFB3F5001CDCF1FE5C0DD901F0004C4FEAC0024CEA5070B2F1004F40EB830008BF20F00100704711F0804F21D113F13872BCBF01F00040FD
:40148000704741F480114FEA5252C2F11802C2F1200C10FA0CF320FA02F018BF40F001004FEAC1234FEAD32303FA0CFC40EA0C0023FA02F34FEA4303CCE77FEA625307D148
:4014C00050EA01331EBF4FF0FE4040F44000704701F0004040F0FE4040F40000704700BF80F0004002E000BF81F0004142001FBF5FEA410392EA030F7FEA226C7FEA236C83
:401500006AD04FEA1262D2EB1363C1BFD218414048404140B8BF5B42192B88BF704710F0004F40F4000020F07F4018BF404211F0004F41F4000121F07F4118BF494292EA67
:40154000030F3FD0A2F1010241FA03FC10EB0C00C3F1200301FA03F100F0004302D5494260EB4000B0F5000F13D3B0F1807F06D340084FEA310102F10102FE2A51D2B1F1E4
:40158000004F40EBC25008BF20F0010040EA03007047490040EB0000013A28BFB0F5000FEDD2B0FA80FCACF1080CB2EB0C0200FA0CF0AABF00EBC25052421843BCBFD04082
:4015C0001843704792F0000F81F4000106BF80F400000132013BB5E74FEA41037FEA226C18BF7FEA236C21D092EA030F04D092F0000F08BF0846704790EA010F1CBF002016
:40160000704712F07F4F04D1400028BF40F00040704712F100723CBF00F50000704700F0004343F0FE4040F4000070477FEA226216BF08467FEA23630146420206BF5FEABD
:40164000412390EA010F40F4800070474FF0000304E000BF10F0004348BF40425FEA000C08BF704743F0964301464FF000001CE050EA010208BF70474FF000030AE000BF59
:4016800050EA010208BF704711F0004302D5404261EB41015FEA010C02BF84460146002043F0B64308BFA3F18053A3F50003BCFA8CF2083AA3EBC25310DB01FA02FC634463
:4016C00000FA02FCC2F12002BCF1004F20FA02F243EB020008BF20F00100704702F1200201FA02FCC2F1200250EA4C0021FA02F243EB020008BF20EADC7070474FF0FF3C5E
:4017000006E000BF4FF0010C02E000BF4FF0010C4DF804CD4FEA40024FEA41037FEA226C18BF7FEA236C11D001B052EA530C18BF90EA010F58BFB2EB030088BFC81738BF95
:401740006FEAE17018BF40F0010070477FEA226C02D15FEA402C05D17FEA236CE4D15FEA412CE1D05DF8040B704700BF844608466146FFE70FB5FFF7C9FF002848BF10F166
:40178000000F0FBD4DF808EDFFF7F4FF0CBF012000205DF808FB00BF4DF808EDFFF7EAFF34BF012000205DF808FB00BF4DF808EDFFF7E0FF94BF012000205DF808FB00BFEA
:4017C0004DF808EDFFF7D2FF94BF012000205DF808FB00BF4DF808EDFFF7C8FF34BF012000205DF808FB00BF024B0A460146186800F042B8DC80FF1F014B1868704700BFF1
:40180000DC80FF1F70B500260C4D0D4C641BA410A64209D100F064FE00260A4D0A4C641BA410A64205D170BD55F8043B98470136EEE755F8043B98470136F2E7EC240000F7
:40184000EC240000EC240000F42400000A44914200F1FF3300D1704710B511F8014B914203F8014FF9D110BD03460244934200D1704703F8011BF9E738B502FB01F5294663
:4018800000F008F8044618B12A460021FFF7ECFF204638BDF8B5CD1C25F0030508350C2D38BF0C25002D064601DBA94203D90C2333600020F8BD00F017F921490A6814461E
:4018C0009CB9204F3B6823B92146304600F094F838602946304600F08FF8431C23D10C233046336000F006F9E3E723685B1B17D40B2B03D923601C44256004E06368A2421B
:401900000CBF0B605360304600F0F4F804F10B00231D20F00700C21ACCD01B1AA350C9E722466468CCE7C41C24F00304A042E3D0211A304600F060F80130DDD1CFE700BF01
:401940006881FF1F6C81FF1F38B50D4B04461D68AB6B7BB9182000F0BFF80A4A0A4BA863C0E90023094B012283600B2383810023C0E904230022AB6B1C615A6138BD00BFF5
:40198000DC80FF1F0E33CDAB34126DE6ECDE0500134B10B51C68A36B7BB9182000F09CF8104A114BA063C0E90023104B012283600B2383810023C0E90423A16B0C480A6909
:4019C0004B6950430B4C04FB0300A2FB04345A1C044444F10000C1E9042020F0004010BDDC80FF1F0E33CDAB34126DE6ECDE05002DF451582D7F954C38B50023054D0446F6
:401A000008462B60FFF78EF8431C02D12B6803B1236038BD7081FF1F0CB430B5174B0C1E1D689DB008DA8B234FF0FF302B601DB0BDE8304002B070474FF40273ADF81430D9
:401A40000CBF234604F1FF33049307934FF6FF7302900690ADF81630284621AB209A02A9019300F0F5F8431CBCBF8B232B60002CDDD00022029B1A70D9E700BFDC80FF1FD2
:401A80001FB50B4B044600226946186800F012F8002805DA4FF0FF324FF0FF33CDE90023DDE900010CB1C4E9000104B010BD00BFDC80FF1F38B50023064D04460846114668
:401AC0002B6000F0B3FB431C02D12B6803B1236038BD00BF7081FF1F024B01461868FFF7D9BE00BFDC80FF1F014800F047BB00BF7881FF1F014800F042BB00BF7881FF1F07
:401B000038B50546002943D051F8043C0C1F002BB8BFE418FFF7E8FF1E4A1368104633B9636014602846BDE83840FFF7E3BFA3420AD921686218934201BF1A685B68521874
:401B4000226063600460EDE71A465B680BB1A342FAD911685018A0420BD120680144501883421160DED118685B68014411605360D8E702D90C232B60D4E7206821188B424F
:401B800001BF19685B680918216063605460C9E738BD00BF6881FF1F2DE9F0478E6882469E420C4690461F4638D88A8912F4906F32D0256809690133A5EB010965694B44D1
:401BC00005EB450505EBD5756D109D4238BF1D46530531D52946FFF75DFE064650B90C234FF0FF30CAF80030A38943F04003A381BDE8F0874A462169FFF728FEA38923F45E
:401C0000906343F08003A38126614E4426603E466561A5EB0905A560BE4200D93E4632464146206800F0BAFAA36822689B1B32440020A3602260DBE72A4600F0C9FA06462C
:401C40000028E1D150462169FFF75AFFC7E700002DE9F04F98468B8907461B060D4614469DB00ED50B6963B94021FFF713FE2860286120B90C233B604FF0FF30D1E04023AD
:401C80006B610023099320238DF8293030234FF00109CDF80C80DFF8A4818DF82A3023469A4613F8012B0AB1252AF9D1BAEB040B0BD05B46224629463846FFF76DFF013044
:401CC00000F0AA80099A5A4409929AF80030002B00F0A28000234FF0FF32CDE905230AF1010A049307938DF853301A935446052214F8011B514800F043FA049AD8B9D006DE
:401D000044BF20238DF85330110744BF2B238DF853309AF800302A2B15D0544600204FF00A0C079A214611F8013B303B092B4ED9B0B1079214E0A0EB080309FA03F31343F3
:401D4000A2460493D2E7039B191D1B680391002BBBBF5B4242F0020207930793B8BF049223782E2B0CD163782A2B35D1039B02341A1D1B680392002BB8BF4FF0FF330593B2
:401D8000DFF8C8A003225046217800F0F9F940B14023A0EB0A0003FA00F0049B01340343049314F8011B062225488DF8281000F0E7F9002838D0234B1BBB039B073323F07E
:401DC000070308330393099B3344099367E70C4601200CFB0232A5E700234FF00A0C194601340593204610F8012B303A092A03D9002BC5D00591C3E7044601230CFB01217B
:401E0000F0E703AB00932A4638460F4B04A9AFF30080421C0646D6D1AB895B063FF52CAF09981DB0BDE8F08F03AB00932A463846054B04A900F07CF8EBE700BFAA240000FD
:401E4000B424000000000000991B0000B02400002DE9F047164699468A680B6907469342B8BF1346336091F843200C46DDF820800AB1013333602368990642BF336802335F
:401E80003360256815F0060506D104F1190AE36832689B1AAB4228DC94F84320131E226818BF012392062DD44946384604F14302C047013020D02368E56803F00603042BC8
:401EC00018BF002532684FF00006A36808BFAD1A226908BF25EAE5759342C4BF9B1AED181A34B5421AD1002008E00123524649463846C047013003D14FF0FF30BDE8F0870A
:401F00000135C4E73020E11881F843005A1C94F845102244023382F84310C5E70123224649463846C0470130E6D00136D9E700002DE9FF470C46277E9146782F80469A465B
:401F40000C9904F1430207D8622F0AD8002F00F0D980582F00F0A48004F1420684F842703AE0A7F16303152BF6D801A050F823F0C91F0000DD1F0000591F0000591F0000BC
:401F8000591F0000591F0000DD1F0000591F0000591F0000591F0000591F0000EB2000000D200000CD200000591F0000591F00000D210000591F00000D200000591F0000F5
:401FC000591F0000D52000000B6804F142061A1D1B680A6084F842300123A4E0256808682E0600F104030AD505680B60002D03DA2D236D4284F843300A235E4819E015F061
:40200000400F05680B6018BF2DB2EFE70B682568181D0860280601D51D6802E06906FBD51D886F2F0CBF08230A235248002184F843106668002EA8BF2168A660A4BF21F050
:40204000040121600DB9002E4DD01646B5FBF3F103FB1157C75D06F8017D2F46BB420D46F4D9082B0BD12368DF0708D5236961689942DEBF302306F8013C06F1FF36921BB0
:4020800022614B4621464046CDF800A003AAFFF7DFFE01304CD14FF0FF3004B0BDE8F087344884F845700E68236856F8045B1F060E6014D5D90744BF43F0200323601DB945
:4020C000236823F0200323601023AFE7236843F0200323607823284884F84530E3E75E0648BFADB2E6E71646BBE70B6826681D1D60690D6035061B6801D5186002E071063E
:40210000FBD51880002316462361BAE70B681A1D0A601E6800213046626800F031F808B1801B606063682361002384F84330A8E73246494640462369D0470130ABD0236814
:402140009B0713D4E068039B9842B8BF1846A4E70123324649464046D04701309BD00135E36803995B1AAB42F2DCEBE7002504F11906F5E7BB240000CC24000070477047E1
:40218000034610B5C9B202449342184601D1002003E0047801338C42F6D110BD884210B501EB020402D98442234607D8431EA14208D011F8012B03F8012FF8E701460244E4
:4021C0008A4200D110BD13F8014D02F8014DF7E7F8B5074614460E4621B91146BDE8F840FFF758BB22B9FFF78BFC25462846F8BD00F014F8A0420FD221463846FFF74AFB72
:4022000005460028F2D031462246FFF71FFB31463846FFF775FCE9E73546E7E751F8043C181F002BBCBF0B58C01870475822024B4FF0FF301A6070477081FF1F0000000038
:4022400047656E65726174696E6720696E746572727570740D0A0000446F7369732065723A2025752061662070696C6C657479706520612C2025752061662070696C6C65E6
:40228000747970652062206F672025752061662070696C6C657479706520632E0D0A0000436F6E7461696E6572204120656D7074790D0A00436F6E7461696E6572204220F4
:4022C000656D7074790D0A00436F6E7461696E6572204320656D7074790D0A0044697370656E73652073756363657366756C6C0D0A00000048656C6C6F2074686572652C29
:40230000206920616D20796F757220646562756767657220746F646179200D0A0000000047656E65726174696E6720706C6174666F726D2073656E736F7220696E707574C7
:40234000202248696768220D0A00000047656E65726174696E6720636F6E7461696E65722073656E736F7220696E70757420226C6F77220D0A00000047656E657261746975
:402380006E67206E6F2070696C6C2064697370656E73656420696E7075740D0A0000000047656E65726174696E672070696C6C732072656D6F76656420696E7075740D0A73
:4023C00000000000526F746174696E6720706C6174666F726D20746F20410D0A00000000526F746174696E6720706C6174666F726D20746F20420D0A00000000526F7461B6
:4024000074696E6720706C6174666F726D20746F20430D0A0000000050757368696E672070696C6C0D0A000050696C6C20636F6E6174696E657220656D7074790D0A000048
:4024400050696C6C207761732064697370656E7365640D0A0000000050696C6C20776173206E6F742064697370656E7365640D0A0000000000510040100040510040300065
:4024800000000140001000140140000800400140000A004C01400002005001402000000060520040380500480600232D302B2000686C4C006566674546470030313233343D
:4024C0003536373839414243444546003031323334353637383961626364656600000000F8B500BFF8BC08BC9E4670474D000000A10B0000F8B500BFF8BC08BC9E467047DB
:402500002900000018250000C880FF1F7800000040000000000000008081FF1F0000E02EC05D00001800000000366E01E080FF1F0000000000000000000000000000000092
:40254000000000000000000000000000000000000000000000000000000000000000000000000000000000000000000000000000000000000000000000000000000000005B
:40258000000000000000000000000000000000000000000000000000000000000000000000000000000000000000000000000000000000000000000000000000000000001B
:4025C00000000000000000000000000000000000000000000000000000000000000000000000000000000000000000000000000000000000000000000000000000000000DB
:40260000000000000000000000000000000000000000000000000000000000000000000000000000000000000000000000000000000000000000000000000000000000009A
:020000040003F7
:0200000480007A
:4000000001520040026400400465004001070140510801404E090140460A0140320B014059180140501901403F1A01404B1B014002400140014101400142014003430140A6
:400040000D4C0140094D01400450014001510140088088078978880F89478A728B38E6020602081A10101202160118041E0A241A28042C04300132023418360438203E1419
:400080004003450449FF4A074BFF4C404D204EF04F0550085602572C58045A045B245D805E085F01604061A86240632084028A788B018C408E0494019A84A004A208A4044E
:4000C000A610A804AA20B002B101B27CB480B601BE45C035C106C5EEC60BC70CC817C9FFCAFFCBFFCEF0CF44D00CD420D604D804D904DA04DB04DC18DD10DF01E6C0EA4085
:40010000EB0201200312040805100720084009080A090D040E460F0210A815501620170819611A101C281D021E01220123803B103C083D08414042204340450449124A11DB
:400140004D014E204F0650445308580160246140634067806CA86F0278807C807D2087408810898092409318948095019704982099149A019B189D089FC0A001A280A4A871
:40018000A620A70AA940AB04B002B308C067C2F6C4EECE04D042D20CD601D88FDE3801090310051006100B030D140E3010301110120A130C1560180219601A181D602004F0
:4001C000211C22082302240226282740290C2A012B112C012F603006314032013438351F372038023A203E043F415608580459045B045D105F01820C830588018A0E8D0AE8
:400200008F04900C920393089503970C99039A089B04A203A401A606A903AB04B00FB50FBA0ABB20D804D904DF0100400220040205120A440E400F0411011398150117081B
:40024000184019161A041D011E401F042002215022012708281029192B022F0830AA35123708388239203B043D013E40411043104420461058105A025B4462916310C055CD
:40028000C25AC43FCA2FCCEFCE9FD60FD80F072009C70F201101130E14011584175119421B9125C73120331835C0360137073E403F05406441024203440545E0460C4806CE
:4002C00049FF4AFF4BFF4C624DA04EF04F41500C5401580459045A045B045F016640670269106A306B106D106E106F12830188048E019C02A202A501AA02AE04B204B401CA
:40030000B501B602BE44BF10C005C101C250C403C50DC6ECC7BFC83DC9FFCAFFCBFFCC22CEF0CF0CD08CD110D441D804D904DA24DB04DC01DD18DF01E840E901EAC0EB01EB
:400340000205080109010A020C081030128213101420150819401B141FC020042420250127052B102E04342037053A093B083D183F80421043804440450446484801490839
:400380004C824E085020514852025740581859405D825F28610478808008811082048A048D0192129318940495D8960C978098C099879A019B209D08A001A102A290A518EB
:4003C000AC80B001B108C003C221C40BCA42CCE0CE71D0EAD238D6FED802DE08E201EE02050309020B0119031A011D021F01220131023401350139203E103F0156025713D1
:40040000580459045B045F01811982B3830684FF850288F389068A0C8C418F1991189240940C95079718980499209C4F9D069E909F19A003A104A402A510A84CA91FAAA3F2
:40044000AC08AD08B118B27CB307B40FB520B68CBAA8BF10D418D804D904DB04DF01040805D006C009200D820F14108015201602170519201C101D942120220125042601AE
:4004800027082C102D802E022F04304031903440350436103701381839203B083D013E803F144410470449104A085A025E026401652069506A04720273148501860888205C
:4004C000894093089550960498019A409B059C209F08A080A102A210A504A608A808AA80B412B704C0F0C2F2C4F8CAF0CCFCCEF6D681D8303220CC10A620A6208620A62091
:40050000E64008200A100F406702821088208C029740AF40C20ED601E201E402104074028840A002B701C408DE04E201E80200030C0310031C0300038080000040000000B3
:400540008000408080008000000000000030300000000000708F8F0080000000000202000000000000FFFF00000000000000000000000000000000000000000000000000CB
:40058000000000000000000000000000000000000000000000000000000000000000000000000000000000000000000000000000000000000000000000000000000000003B
:4005C00000000000000000000000000000000000000000000000000000000000000000000000000000000000000000000000000000000000000000000000000000000000FB
:4006000000000000000000000000000000000000000000000000000000000000000000000000000000000000000000000000000000000000000000000000000000000000BA
:40064000000000000000000000000000000000000000000000000000000000000000000000000000000000000000000000000000000000000000000000000000000000007A
:0200000490006A
:0400000000004005B7
:0200000490105A
:04000000BC90ACAF55
:0200000490303A
:02000000CE2F01
:0200000490402A
:4000000000000000000000000000000000000000000000000000000000000000000000000000000000000000000000000000000000000000000000000000000000000000C0
:400040000000000000000000000000000000000000000000000000000000000000000000000000000000000000000000000000000000000000000000000000000000000080
:400080000000000000000000000000000000000000000000000000000000000000000000000000000000000000000000000000000000000000000000000000000000000040
:4000C0000000000000000000000000000000000000000000000000000000000000000000000000000000000000000000000000000000000000000000000000000000000000
:0200000490501A
:0C00000000012E16106900012E25DE986C
:00000001FF