:400000000080002011000000D5030000D503000008B5044B1A6803F53F5302331A6000F0E1F900BFFA46004010B5054C237833B9044B13B10448AFF300800123237010BDED
:400040004081FF1F00000000080A000008B5034B1BB103490348AFF3008008BD000000004481FF1F080A000000B587B062B601A800F072F801A800F00DF801A9684600F058
:4000800069F8694601A800F029F801A800F06EF8FEE7000010B50446084B1860082100F0ABFB0821601800F0C1FB422000F09CFB00F084FA0023236110BD00BF5C81FF1F27
:4000C000F8B50446057A467A877A00F0CFFB3B4632462946206900F011F8F8BD0161704708B500F0BDFB022800D808BD024B1868FFF7E6FFF9E700BF5C81FF1F2DE9F041A2
:400100000546884617461E460024444505D2286800F02CF80134E4B2F7E7286800F036F80024BC4205D2286800F020F80134E4B2F7E7286800F02AF8002404E0286800F002
:4001400015F80134E4B2B442F8D3286800F01EF8BDE8F0810160704708B500F0BBFB024800F0D4FB08BD00BF0C0A000008B5012000F0ECFB4FF47A7000F090F9002000F0B1
:40018000E5FB4FF47A7000F089F908BD08B541F2883000F083F908BDFEE7F0B4002217460BE001EB420511F812406D78A5550132013BDBB2002BF4D101370E2F05D850F83C
:4001C0002760F3B226F0FF06F4E7F0BC70470000064B1B7803F00701054A11701B0901321370044B44221A70704700BFCF0100496E5800407658004008B50A46002100F0F1
:40020000FBFB08BD38B5254B33221A80023318221A7003F27E2302221A7008224FF040231A7003F50073032119701D4B1B78DBB21C490B701C4B1A80023B41F251221A8026
:40024000002419250CE0194B1B7803F0010343EA440404F003044FF4F07000F085FB013D0DB1032CEFD1ADB1114B4FF480721A8007221A7000220F490A7002314820087091
:400280001A70033B02221A700B4A137843F00103137038BD0320FFF77FFF00BF8040004008010049A146004022420040254200400440004006400040A243004008B500F043
:4002C0008DFB08BD38B572B6334A137843F0040313700024092C0CD8304804EB440253001A46034499888058FFF786FF0134E4B2F0E700240CE0294A04EB84014B00134444
:40030000B3F84420196CD86BFFF7D8FF0134E4B2012CF0D922494FF09040FFF73EFF214A137843F0020313701032137843F0020313701D4C237843F040032370A2F5863216
:40034000513A137843F0100313700A2217491848FFF7B4FF082217491748FFF7AFFF082216491748FFF7AAFF164A137843F008031370154D61232B70FFF744FF81232B7050
:40038000124B01221A70FFF723FF0E2221461048FFF794FF38BD00BFE8460040380A00003C00004803500140A04300405C030048C0510040680300481251004070030048FB
:4003C00022510040224300400048004004000840B043004008B500F0D7FA03680C2B00D0FEE7FEE708B5104E104D11E051F8040B43F8040B0432A242F8D1E868002203E0A1
:40040000002143F8041B04328242F9D11035013E26B129686B68AC680022ECE700F0BAFAFFF722FEFEE700BF01000000AC0A000008B5104B104A1A60104A136843F4007335
:400440001360002306E00E4A52F823100D4A42F8231001332F2B03D8032BF4D90A49F5E70A4B1A780A4B1A700A4B064A1A60FFF729FF08BD0CED00E00004FA0514ED00E04F
:40048000000000000080FF1FD5030000BC760040C080FF1F08ED00E001BE704710B50446B4F5004F06D9074B186800F05DFAA4F50044F5E7034B586800FB04F000F054FAB8
:4004C00010BD00BFC880FF1F70B504460D46084B1E681F2807D804F01F04103456F8240046F8245070BD0020FFF7D6FFF3E700BF08ED00E038B504460D4607290BD81F2C5C
:400500000DD804F01F0000F1604000F564406D01EDB2057038BD0020FFF7BEFFEFE70020FFF7BAFFEDE7000070B5144B01221A700E3B81221A70422602331E700F2511338C
:400540001D70002401331C700D4B4FF400421A6007212846FFF7CEFF0A492846FFF7B4FF094B10221A70094B1C70094B1C70094B1C70304600F038F970BD00BFD64900405E
:4005800080E100E0E90500006381FF1F6581FF1F6481FF1F6C81FF1F08B500F0EDF9064A137843F0040313701032137843F00403137000F0E5F908BDA543004008B5084B78
:4005C0001B7833B1FFF7E8FF064B4FF400421A6008BDFFF7A9FF024B01221A70F2E700BF6081FF1F00E100E008B5744B1B78DAB2734B1B7813F0400F40F0DC80704B1B788A
:4006000013F0100F00F0D38012F0200F03D102F00903092B04D16A4B1B78DBB2112B2CD012F0010F00F0C68012F0080F54D0654B1B7813F0010F3ED0634B1A78D2B2634BE1
:400640001B78DBB29A422AD25F4A1378DBB260490968CB5CDBB25B490B70584B1421197013780133DBB213705A4A137843F002031370534B12221A709CE057490B7803F0CC
:40068000EF030B70534B197801F0DF011970197841F0100119704A4B10211970C0E7494BFF221A70013B14221A704A4A137843F006031370DDE7414B10221A70404B11220F
:4006C0001A70444A137843F020031370424A137843F0100313706DE0394B1B78DBB2112B20D0374B1B78DBB2122B5CD112F0020F46D1354B1A78D2B2344B1B78DBB29A423A
:4007000032D2314A1378DBB231490968CB5CDBB22C490B70294B0421197013780133DBB2137047E02D4B1A78D2B22D4B1B78DBB29A4210D2234B1978C9B2013B10221A7025
:40074000264A1378DBB227480068C15413780133DBB213702EE0194B00221A701D4A137843F04003137025E0164BFF221A70013B04221A70174A137843F00403137019E08E
:40078000104BFF221A70013B00221A70114B1A7802F0FD021A701A7842F001021A70084B10221A7006E00020FFF776FE02E0044B10221A70FFF794FC08BD00BFD7490040BB
:4007C0006381FF1FD84900406481FF1F7481FF1F6881FF1F6581FF1FD64900406C81FF1F6681FF1F7081FF1F00F07F00014B1870704700BFCA490040024660B14FF400430C
:400800000548036005480260054A1170054A00211170054A1360704780E100E06881FF1F7481FF1F6481FF1F00E100E0024660B14FF400430548036005480260054A1170F2
:40084000054A00211170054A1360704780E100E07081FF1F6681FF1F6C81FF1F00E100E0014B1878704700BF6C81FF1F014B00221A7070476C81FF1F074B72221A70013332
:4008800020221A705F3B06221A70103347221A70513300221A7070478865004010B500F06BF804460A4A137843F0200313700132137843F0100313700232137843F0100330
:4008C000137000F035F8204600F05AF810BD00BF9865004008B5064B1B7813B1FFF7DEFF08BDFFF7C9FF024B01221A70F6E700BF6181FF1F034B1B7813F0040FFAD1024B87
:40090000187070476B6500404B65004038B5074B1B7803B938BD05460024285D0028F9D0FFF7E8FF0134A4B2F7E700BF6181FF1F054A137843F0010313701032137843F077
:4009400001031370704700BFA2430040044A137803F0FD03400000F0020018431070704720510040000000000230800803D000BF01380046FCD17047EFF3108072B6704774
:4009800080F31088704700BF014B1868704700BFD880FF1F70B500260C4D0D4C641BA410A64209D100F070F800260A4D0A4C641BA410A64205D170BD55F8043B9847013621
:4009C000EEE755F8043B98470136F2E7940A0000940A0000940A00009C0A00000A44914200F1FF3300D1704710B511F8014B914203F8014FF9D110BD03460244934200D157
:400A0000704703F8011BF9E70000000048656C6C6F2074686572652C206920616D20796F757220646562756767657220746F646179200D0A00000000C849004019000051B2
:400A400000401000305100404000F0510040100000000140001000140140000480180140800300400140000A004C0140000200500140200060520040D40200480600001895
:400A80000140DC0200488000F8B500BFF8BC08BC9E4670474D00000031040000F8B500BFF8BC08BC9E46704729000000C00A0000C880FF1F780000003800000000000000C6
:400AC0000000E02EC05D00001800000000366E01DC80FF1F000000000000000000000000000000000000000000000000000000000000000000000000000000000000000094
:400B000000000000000000000000000000000000000000000000000000000000000000000000000000000000000000000000000000000000000000000000000000000000B5
:400B40000000000000000000000000000000000000000000000000000000000000000000000000000000000000000000000000000000000000000000000000000000000075
:400B80000000000000000000000000000000000000000000000000000000000000000000000000000000000000000000000000000000000000000000000000000000000035
:400BC00000000000000000000000000000000000000000000000000000000000000000000000000000000000000000000000000000000000000000000000000000000000F5
:020000040003F7
:0200000480007A
:40000000036500400315014001170140141801403F190140701A0140531B014002420140014301400348014010490140094C01400D4D0140025001400151014088728938A4
:400040008B0FE008E401EA09E20486028E04920499019A02A401A801AC01B002B201B404B501BB80BE11BF10D418D804D904DB04DF01022003020641071409110E620F0825
:400080001022111015C1172818041B0D1D041E46214022102501262027102D402E082F08320433283540360137103D083E624480450847404E044F40551057025B015E04A1
:4000C000600463026C226D10762B772878807A0182108A208B408D48C0F5C2FAC4F7CA70CCB4CEF0D0D0D230D641D80CE204E4040410058006AC07130C0C0E710F0C10095E
:4001000012D01414152C174319711A031B061F08201021712240230E262028DC2A2230E031C0330F341F353039223A023B083F104002460449FF4A074BFF4C404D204EF076
:400140004F055008580459045A045F01604061A862406320801381118204836884138530860C888089308A208C408D038E2091039208940A95229614971898E09B039C0314
:400180009E14A020A103A2C0A304A615A8E0AB03AF03B010B10CB340B40FB530B6E0B703BA20BE01BF01C036C101C50BC60EC7C0C825C9FFCAFFCBFFCEF0CF44D00CD4010F
:4001C000D804D904DA04DB04DF01E6C0EA40EB0202110501061207080A240B400C200D080F46108011041208151519011A041B201C401D101F402004210822082340250456
:40020000274D29112A112D012E402F483080311836013718380839043B403D503E023F04400446114C044E105084550156405701580859045C495D206001624089408A1293
:400240008D2191509240950199049B109D409E409F45A020A201A308A504A610A720C0F5C2FEC47ECAB1CCEECEFAD054D220D6F0E008E401EA093E10CE20961082209610F2
:40028000E2201220164072207F02822086409A20A302AA10AF02C430DC80DE20E010E480EA901080132015087B107F4080808102C40EDE03104075028310874088409780F3
:4002C0009902A710AB20AD04C408DE04E20110011C0103C08280000040000000401000001C00230402180000081C00611F67201801000000003C234233040C000300000094
:40030000040800000C0000233F7F00002C40401F10380F000002820800001400460305000100C0E028FFFFFF62A0F0410C000000000002120404040400000001000000008A
:4003400000004002001030100010101200000000000000000000000000000000800040808300830000000000000B0B00000000000002020000000000000000000000000059
:40038000000000000000000000000000000000000000000000000000000000000000000000000000000000000000000000000000000000000000000000000000000000003D
:4003C00000000000000000000000000000000000000000000000000000000000000000000000000000000000000000000000000000000000000000000000000000000000FD
:4004000000000000000000000000000000000000000000000000000000000000000000000000000000000000000000000000000000000000000000000000000000000000BC
:40044000000000000000000000000000000000000000000000000000000000000000000000000000000000000000000000000000000000000000000000000000000000007C
:0200000490006A
:0400000000004005B7
:0200000490105A
:04000000BC90ACAF55
:0200000490303A
:02000000C9AB8A
:0200000490402A
:4000000000000000000000000000000000000000000000000000000000000000000000000000000000000000000000000000000000000000000000000000000000000000C0
:400040000000000000000000000000000000000000000000000000000000000000000000000000000000000000000000000000000000000000000000000000000000000080
:400080000000000000000000000000000000000000000000000000000000000000000000000000000000000000000000000000000000000000000000000000000000000040
:4000C0000000000000000000000000000000000000000000000000000000000000000000000000000000000000000000000000000000000000000000000000000000000000
:0200000490501A
:0C00000000012E16106900012E1ADA14FF
:00000001FF